:020000040000fa
:080000000002040000000000f2
:020000040000fa
:0400080024030000cd
:020000040000fa
:04000c0024030000c9
:020000040000fa
:0400100024030000c5
:020000040000fa
:0400140024030000c1
:020000040000fa
:0400180024030000bd
:020000040000fa
:04001c0024030000b9
:020000040000fa
:0400200024030000b5
:020000040000fa
:0400240024030000b1
:020000040000fa
:0400280024030000ad
:020000040000fa
:04002c00fa020000d4
:020000040000fa
:0400300024030000a5
:020000040000fa
:0400340024030000a1
:020000040000fa
:04003800240300009d
:020000040000fa
:04003c002403000099
:020000040000fa
:040040002403000095
:020000040000fa
:040044002403000091
:020000040000fa
:04004800240300008d
:020000040000fa
:04004c002403000089
:020000040000fa
:040050002403000085
:020000040000fa
:040054002403000081
:020000040000fa
:04005800240300007d
:020000040000fa
:04005c002403000079
:020000040000fa
:040060002403000075
:020000040000fa
:040064002403000071
:020000040000fa
:04006800240300006d
:020000040000fa
:04006c002403000069
:020000040000fa
:040070002403000065
:020000040000fa
:040074002403000061
:020000040000fa
:04007800240300005d
:020000040000fa
:04007c002403000059
:020000040000fa
:040080002403000055
:020000040000fa
:040084002403000051
:020000040000fa
:04008800240300004d
:020000040000fa
:04008c002403000049
:020000040000fa
:040090002403000045
:020000040000fa
:040094002403000041
:020000040000fa
:04009800240300003d
:020000040000fa
:04009c002403000039
:020000040000fa
:0400a0002403000035
:020000040000fa
:0400a4002403000031
:020000040000fa
:0400a800240300002d
:020000040000fa
:0400ac002403000029
:020000040000fa
:0400b0002403000025
:020000040000fa
:0400b4002403000021
:020000040000fa
:0400b800240300001d
:020000040000fa
:0400bc002403000019
:020000040000fa
:0400c0002403000015
:020000040000fa
:0400c4002403000011
:020000040000fa
:0400c800240300000d
:020000040000fa
:0400cc002403000009
:020000040000fa
:0400d0002403000005
:020000040000fa
:0400d4002403000001
:020000040000fa
:0400d80024030000fd
:020000040000fa
:0400dc0024030000f9
:020000040000fa
:0400e00024030000f5
:020000040000fa
:0400e40024030000f1
:020000040000fa
:0400e80024030000ed
:020000040000fa
:0400ec0024030000e9
:020000040000fa
:0400f00024030000e5
:020000040000fa
:0400f40024030000e1
:020000040000fa
:0400f80024030000dd
:020000040000fa
:0400fc0024030000d9
:020000040000fa
:0401000024030000d4
:020000040000fa
:0401040024030000d0
:020000040000fa
:0401080024030000cc
:020000040000fa
:04010c0024030000c8
:020000040000fa
:0401100024030000c4
:020000040000fa
:0401140024030000c0
:020000040000fa
:0401180024030000bc
:020000040000fa
:04011c0024030000b8
:020000040000fa
:0401200024030000b4
:020000040000fa
:0401240024030000b0
:020000040000fa
:0401280024030000ac
:020000040000fa
:04012c0024030000a8
:020000040000fa
:0401300024030000a4
:020000040000fa
:0401340024030000a0
:020000040000fa
:04013800240300009c
:020000040000fa
:04013c002403000098
:020000040000fa
:040140002403000094
:020000040000fa
:040144002403000090
:020000040000fa
:04014800240300008c
:020000040000fa
:04014c002403000088
:020000040000fa
:040150002403000084
:020000040000fa
:040154002403000080
:020000040000fa
:04015800240300007c
:020000040000fa
:04015c002403000078
:020000040000fa
:040160002403000074
:020000040000fa
:040164002403000070
:020000040000fa
:04016800240300006c
:020000040000fa
:04016c002403000068
:020000040000fa
:040170002403000064
:020000040000fa
:040174002403000060
:020000040000fa
:04017800240300005c
:020000040000fa
:04017c002403000058
:020000040000fa
:040180002403000054
:020000040000fa
:040184002403000050
:020000040000fa
:04018800240300004c
:020000040000fa
:04018c002403000048
:020000040000fa
:040190002403000044
:020000040000fa
:040194002403000040
:020000040000fa
:04019800240300003c
:020000040000fa
:04019c002403000038
:020000040000fa
:0401a0002403000034
:020000040000fa
:0401a4002403000030
:020000040000fa
:0401a800240300002c
:020000040000fa
:0401ac002403000028
:020000040000fa
:0401b0002403000024
:020000040000fa
:0401b4002403000020
:020000040000fa
:0401b800240300001c
:020000040000fa
:0401bc002403000018
:020000040000fa
:0401c0002403000014
:020000040000fa
:0401c4002403000010
:020000040000fa
:0401c800240300000c
:020000040000fa
:0401cc002403000008
:020000040000fa
:0401d0002403000004
:020000040000fa
:0401d4002403000000
:020000040000fa
:0401d80024030000fc
:020000040000fa
:0401dc0024030000f8
:020000040000fa
:0401e00024030000f4
:020000040000fa
:0401e40024030000f0
:020000040000fa
:0401e80024030000ec
:020000040000fa
:0401ec0024030000e8
:020000040000fa
:0401f00024030000e4
:020000040000fa
:0401f40024030000e0
:020000040000fa
:0401f80024030000dc
:020000040000fa
:0401fc0024030000d8
:020000040000fa
:0402000024030000d3
:020000040000fa
:0402040024030000cf
:020000040000fa
:0402080024030000cb
:020000040000fa
:04020c0024030000c7
:020000040000fa
:0402100024030000c3
:020000040000fa
:0402140024030000bf
:020000040000fa
:0402180024030000bb
:020000040000fa
:04021c0024030000b7
:020000040000fa
:0402200024030000b3
:020000040000fa
:0402240024030000af
:020000040000fa
:0402280024030000ab
:020000040000fa
:04022c0024030000a7
:020000040000fa
:0402300024030000a3
:020000040000fa
:04023400240300009f
:020000040000fa
:04023800240300009b
:020000040000fa
:04023c002403000097
:020000040000fa
:040240002403000093
:020000040000fa
:04024400240300008f
:020000040000fa
:04024800240300008b
:020000040000fa
:04024c002403000087
:020000040000fa
:040250002403000083
:020000040000fa
:04025400240300007f
:020000040000fa
:04025800240300007b
:020000040000fa
:04025c002403000077
:020000040000fa
:040260002403000073
:020000040000fa
:04026400240300006f
:020000040000fa
:04026800240300006b
:020000040000fa
:04026c002403000067
:020000040000fa
:040270002403000063
:020000040000fa
:04027400240300005f
:020000040000fa
:04027800240300005b
:020000040000fa
:04027c002403000057
:020000040000fa
:040280002403000053
:020000040000fa
:04028400240300004f
:020000040000fa
:04028800240300004b
:020000040000fa
:04028c002403000047
:020000040000fa
:040290002403000043
:020000040000fa
:04029400240300003f
:020000040000fa
:04029800240300003b
:020000040000fa
:04029c002403000037
:020000040000fa
:0402a0002403000033
:020000040000fa
:0402a400240300002f
:020000040000fa
:0402a800240300002b
:020000040000fa
:0402ac002403000027
:020000040000fa
:0402b0002403000023
:020000040000fa
:0402b400240300001f
:020000040000fa
:0402b800240300001b
:020000040000fa
:0402bc002403000017
:020000040000fa
:0402c0002403000013
:020000040000fa
:0402c400240300000f
:020000040000fa
:0402c800240300000b
:020000040000fa
:0402cc002403000007
:020000040000fa
:0402d0002403000003
:020000040000fa
:0402d40024030000ff
:020000040000fa
:0402d80024030000fb
:020000040000fa
:0402dc0024030000f7
:020000040000fa
:0402e00024030000f3
:020000040000fa
:0402e40024030000ef
:020000040000fa
:0402e80024030000eb
:020000040000fa
:0402ec0024030000e7
:020000040000fa
:0402f00024030000e3
:020000040000fa
:0402f40024030000df
:020000040000fa
:0402f80024030000db
:020000040000fa
:0402fc0024030000d7
:020000040000fa
:0403000024030000d2
:020000040000fa
:0403040024030000ce
:020000040000fa
:0403080024030000ca
:020000040000fa
:04030c0024030000c6
:020000040000fa
:0403100024030000c2
:020000040000fa
:0403140024030000be
:020000040000fa
:0403180024030000ba
:020000040000fa
:04031c0024030000b6
:020000040000fa
:0403200024030000b2
:020000040000fa
:0403240024030000ae
:020000040000fa
:100400000f0021000eff22000e01880000000000f6
:10041000000020000000e000020032000001200087
:100420002002880014000700890007000000e00097
:1004300003003a0000002000010020000200370005
:100440000000200001002000810f70000100320038
:100450000f000700000020000000e0000200320052
:100460000000020000000000ba03020000000000cb
:100470000040da000000fe00200020000000e00044
:1004800002003200100020009001880000000600e9
:10049000a1028800800478000000eb001f003700f4
:1004a000e284440054a0b4009905ba00e2844400f8
:1004b00054a0b4009906ba00e284440054a0b400e9
:1004c0000006eb00476fde00fd07b200ae018800ba
:1004d000636ce10003003a000ad801000000eb0061
:1004e0000e003700606ce10008003a00004deb00a0
:1004f0000a05e800020039003420ec000af0a000f0
:100500008b05e900f9ff3e00040037006168e10057
:10051000010032000086eb000b00070019c7ba008b
:100520001905ba000e04e00003003a000a00e000da
:10053000dbff3a0000000600fe07b200ae028800b2
:100540008a047800f5ff37000cd0a300e20f4d00bd
:100550001c003b0089027800354dba000a05e8000e
:10056000020039003420ec000af0a0008b05e900fd
:100570000f003200254dba000a05e80002003900dc
:100580003420ec000af0a0008b05e90008003200de
:100590000c00e0000600320015cdba000a05e800a4
:1005a000020039003420ec000af0a0008b05e900bd
:1005b0008984e80054a0b4000b00e000e2ff3a0098
:1005c000000006009902ba00055d78008b05e9007d
:1005d000f7ff3200c82ade00055d78008b05e900d0
:1005e000f3ff32000c00e000f1ff320019ddba0029
:1005f000eeff3700809fbe000000fa000028a9002f
:10060000d1728000000022000080600000f0a7008e
:100610000000ea000000e9004f00de000040780022
:100620000080fb00610060004d00dd00d1728000a1
:1006300001d0a10001007000d07288000080fa0093
:100640004f00be00004006000040da000000fe003f
:0406500000000500a1
:020000040000fa
:100654000000fa002be3a80051198000f08f2f004e
:1006640000806000501988005119800070fe2f002e
:1006740000806000501988005119800080ff2f000d
:10068400008060000020a000501988002de3a9001c
:100694002dc3a9002da3a9002d63a9006119800011
:1006a400f08f2f0000806000601988002cc3a9001f
:1006b4006119800000ff2f0000806000601988002d
:1006c40031e3a90031c3a90031a3a9003183a800f3
:1006d40081198000f03f2f0000806000801988009d
:1006e40081198000f0cf2f000080600080198800fd
:1006f40081198000f0f32f000080600080198800c9
:100704008119800030ff2f0000806000801988006c
:1007140081198000c0ff2f000080600080198800cc
:1007240091198000f0ff2800008060009019880073
:100734003303a90091198000f0fc2f0000806000b1
:100744000040a000901988003263a8003243a90039
:100754003223a9003203a900803e2000901a8800a9
:10076400401f2000701a88000080fa000000060074
:100774000000fa00022ea9002a000700b4ff0700b7
:10078400062ea800feff37000000fa002103200017
:10079400b0210a00880f0000317c800000fc2f008b
:1007a400008060000000a000307c8800517c800044
:1007b400f0f82f0080806000000520000100700028
:1007c400507c8800517c800080ff2f0000806000f6
:1007d4000000a000507c8800800120008010880068
:1007e4000080fa00000006000000fa0000e2240085
:1007f400400888000421ef000028a9002028a80050
:1008040001e1a8000021a80001088000f0cf2f001a
:10081400008060000090a000000888000080fa00ba
:10082400000006000000fa00d7ff070057aea90039
:10083400edff0700c3e8a80000000000000000006e
:04084400ffff37007b
:020000040000fa
:020000040001f9
:045e3000f9ffff0077
:020000040000fa
:020000040001f9
:045e3800ffffff0069
:00000001FF
